{
  "contractName": "dcare",
  "abi": [
    {
      "inputs": [],
      "payable": false,
      "stateMutability": "nonpayable",
      "type": "constructor"
    },
    {
      "constant": true,
      "inputs": [
        {
          "internalType": "uint256",
          "name": "",
          "type": "uint256"
        }
      ],
      "name": "Medicine",
      "outputs": [
        {
          "internalType": "uint256",
          "name": "",
          "type": "uint256"
        }
      ],
      "payable": false,
      "stateMutability": "view",
      "type": "function"
    },
    {
      "constant": true,
      "inputs": [
        {
          "internalType": "uint256",
          "name": "",
          "type": "uint256"
        }
      ],
      "name": "isDelivered",
      "outputs": [
        {
          "internalType": "bool",
          "name": "",
          "type": "bool"
        }
      ],
      "payable": false,
      "stateMutability": "view",
      "type": "function"
    },
    {
      "constant": true,
      "inputs": [
        {
          "internalType": "uint256",
          "name": "",
          "type": "uint256"
        }
      ],
      "name": "registeredDoctors",
      "outputs": [
        {
          "internalType": "uint256",
          "name": "id",
          "type": "uint256"
        },
        {
          "internalType": "string",
          "name": "username",
          "type": "string"
        },
        {
          "internalType": "string",
          "name": "password",
          "type": "string"
        },
        {
          "internalType": "address",
          "name": "add",
          "type": "address"
        }
      ],
      "payable": false,
      "stateMutability": "view",
      "type": "function"
    },
    {
      "constant": true,
      "inputs": [
        {
          "internalType": "uint256",
          "name": "",
          "type": "uint256"
        }
      ],
      "name": "registeredPatients",
      "outputs": [
        {
          "internalType": "string",
          "name": "username",
          "type": "string"
        },
        {
          "internalType": "string",
          "name": "password",
          "type": "string"
        },
        {
          "internalType": "uint256",
          "name": "id",
          "type": "uint256"
        }
      ],
      "payable": false,
      "stateMutability": "view",
      "type": "function"
    },
    {
      "constant": false,
      "inputs": [
        {
          "internalType": "string",
          "name": "uname",
          "type": "string"
        },
        {
          "internalType": "string",
          "name": "psd",
          "type": "string"
        },
        {
          "internalType": "uint256",
          "name": "idd",
          "type": "uint256"
        }
      ],
      "name": "registerPatient",
      "outputs": [],
      "payable": false,
      "stateMutability": "nonpayable",
      "type": "function"
    },
    {
      "constant": false,
      "inputs": [
        {
          "internalType": "address",
          "name": "add",
          "type": "address"
        },
        {
          "internalType": "string",
          "name": "uname",
          "type": "string"
        },
        {
          "internalType": "string",
          "name": "psd",
          "type": "string"
        }
      ],
      "name": "registerDoctor",
      "outputs": [],
      "payable": false,
      "stateMutability": "nonpayable",
      "type": "function"
    },
    {
      "constant": false,
      "inputs": [
        {
          "internalType": "uint256",
          "name": "idd",
          "type": "uint256"
        },
        {
          "internalType": "uint256",
          "name": "idp",
          "type": "uint256"
        }
      ],
      "name": "referPatient",
      "outputs": [],
      "payable": false,
      "stateMutability": "nonpayable",
      "type": "function"
    },
    {
      "constant": true,
      "inputs": [
        {
          "internalType": "uint256",
          "name": "idd",
          "type": "uint256"
        },
        {
          "internalType": "uint256",
          "name": "i",
          "type": "uint256"
        }
      ],
      "name": "check",
      "outputs": [
        {
          "internalType": "uint256",
          "name": "",
          "type": "uint256"
        }
      ],
      "payable": false,
      "stateMutability": "view",
      "type": "function"
    },
    {
      "constant": false,
      "inputs": [
        {
          "internalType": "uint256",
          "name": "a",
          "type": "uint256"
        },
        {
          "internalType": "uint256",
          "name": "b",
          "type": "uint256"
        },
        {
          "internalType": "uint256",
          "name": "c",
          "type": "uint256"
        },
        {
          "internalType": "uint256",
          "name": "d",
          "type": "uint256"
        },
        {
          "internalType": "uint256",
          "name": "e",
          "type": "uint256"
        }
      ],
      "name": "updateMedicine",
      "outputs": [],
      "payable": false,
      "stateMutability": "nonpayable",
      "type": "function"
    },
    {
      "constant": false,
      "inputs": [
        {
          "internalType": "string",
          "name": "m",
          "type": "string"
        },
        {
          "internalType": "uint256",
          "name": "idp",
          "type": "uint256"
        },
        {
          "internalType": "uint256",
          "name": "a",
          "type": "uint256"
        },
        {
          "internalType": "uint256",
          "name": "b",
          "type": "uint256"
        },
        {
          "internalType": "uint256",
          "name": "c",
          "type": "uint256"
        },
        {
          "internalType": "uint256",
          "name": "d",
          "type": "uint256"
        },
        {
          "internalType": "uint256",
          "name": "e",
          "type": "uint256"
        }
      ],
      "name": "generatePrescription",
      "outputs": [],
      "payable": false,
      "stateMutability": "nonpayable",
      "type": "function"
    },
    {
      "constant": false,
      "inputs": [
        {
          "internalType": "uint256",
          "name": "idpres",
          "type": "uint256"
        }
      ],
      "name": "provideMedicine",
      "outputs": [
        {
          "internalType": "bool",
          "name": "",
          "type": "bool"
        }
      ],
      "payable": false,
      "stateMutability": "nonpayable",
      "type": "function"
    },
    {
      "constant": true,
      "inputs": [
        {
          "internalType": "uint256",
          "name": "i",
          "type": "uint256"
        }
      ],
      "name": "getMedicine",
      "outputs": [
        {
          "internalType": "uint256",
          "name": "",
          "type": "uint256"
        }
      ],
      "payable": false,
      "stateMutability": "view",
      "type": "function"
    },
    {
      "constant": true,
      "inputs": [
        {
          "internalType": "address",
          "name": "user",
          "type": "address"
        }
      ],
      "name": "checkUser",
      "outputs": [
        {
          "internalType": "string",
          "name": "",
          "type": "string"
        }
      ],
      "payable": false,
      "stateMutability": "view",
      "type": "function"
    }
  ],
  "bytecode": "0x608060405260008055600060015560006002553480156200001f57600080fd5b50620000b1732ee4bef611eedfe1822169bdcb18247cc27bbbce6040518060400160405280600481526020017f4472524d000000000000000000000000000000000000000000000000000000008152506040518060400160405280600681526020017f4d69736872610000000000000000000000000000000000000000000000000000815250620002f460201b60201c565b6200014273c10fdea8aea67fee221fe47b4f0a1703cbb5d4916040518060400160405280600481526020017f44724d4b000000000000000000000000000000000000000000000000000000008152506040518060400160405280600781526020017f4b756d6177617400000000000000000000000000000000000000000000000000815250620002f460201b60201c565b73443d7a509a5859be26fd5e2e60fec30d7e6f3adf600c60000160006101000a81548173ffffffffffffffffffffffffffffffffffffffff021916908373ffffffffffffffffffffffffffffffffffffffff1602179055507322f5b24222210b8ef09c21e563ea861253211979600d60000160006101000a81548173ffffffffffffffffffffffffffffffffffffffff021916908373ffffffffffffffffffffffffffffffffffffffff160217905550620002706040518060400160405280600781526020017f52697368616268000000000000000000000000000000000000000000000000008152506040518060400160405280600681526020017f4d6973687261000000000000000000000000000000000000000000000000000081525060006200044b60201b60201c565b620002ee6040518060400160405280600681526020017f4d616e69736800000000000000000000000000000000000000000000000000008152506040518060400160405280600781526020017f4b756d617761740000000000000000000000000000000000000000000000000081525060006200044b60201b60201c565b620006dd565b620002fe6200056f565b82816020018190525081816040018190525083816060019073ffffffffffffffffffffffffffffffffffffffff16908173ffffffffffffffffffffffffffffffffffffffff168152505060015481600001818152505060016000815480929190600101919050555060048190806001815401808255809150509060018203906000526020600020906005020160009091929091909150600082015181600001556020820151816001019080519060200190620003bc929190620005b4565b506040820151816002019080519060200190620003db929190620005b4565b5060608201518160030160006101000a81548173ffffffffffffffffffffffffffffffffffffffff021916908373ffffffffffffffffffffffffffffffffffffffff1602179055506080820151816004019080519060200190620004419291906200063b565b5050505050505050565b620004556200068d565b8381600001819052508281602001819052506000548160400181815250506000808154809291906001019190505550600381908060018154018082558091505090600182039060005260206000209060040201600090919290919091506000820151816000019080519060200190620004d0929190620005b4565b506020820151816001019080519060200190620004ef929190620005b4565b50604082015181600201556060820151816003019080519060200190620005189291906200063b565b50505050600482815481106200052a57fe5b90600052602060002090600502016004018160400151908060018154018082558091505090600182039060005260206000200160009091929091909150555050505050565b6040518060a00160405280600081526020016060815260200160608152602001600073ffffffffffffffffffffffffffffffffffffffff168152602001606081525090565b828054600181600116156101000203166002900490600052602060002090601f016020900481019282601f10620005f757805160ff191683800117855562000628565b8280016001018555821562000628579182015b82811115620006275782518255916020019190600101906200060a565b5b509050620006379190620006b5565b5090565b8280548282559060005260206000209081019282156200067a579160200282015b82811115620006795782518255916020019190600101906200065c565b5b509050620006899190620006b5565b5090565b6040518060800160405280606081526020016060815260200160008152602001606081525090565b620006da91905b80821115620006d6576000816000905550600101620006bc565b5090565b90565b61187980620006ed6000396000f3fe608060405234801561001057600080fd5b50600436106100cf5760003560e01c8063a67422651161008c578063d4867f3411610066578063d4867f34146107c9578063d73d520814610801578063dcdb69d21461091b578063f4f9889c14610961576100cf565b8063a6742265146105e9578063a9266dec1461062b578063c79fdc941461066d576100cf565b806304c42886146100d45780631e9d48cf1461022157806353d08ef4146102de5780636dde7eaf146104505780638fefd8ea14610547578063a3b5698b14610593575b600080fd5b610100600480360360208110156100ea57600080fd5b81019080803590602001909291905050506109a7565b6040518085815260200180602001806020018473ffffffffffffffffffffffffffffffffffffffff1673ffffffffffffffffffffffffffffffffffffffff168152602001838103835286818151815260200191508051906020019080838360005b8381101561017c578082015181840152602081019050610161565b50505050905090810190601f1680156101a95780820380516001836020036101000a031916815260200191505b50838103825285818151815260200191508051906020019080838360005b838110156101e25780820151818401526020810190506101c7565b50505050905090810190601f16801561020f5780820380516001836020036101000a031916815260200191505b50965050505050505060405180910390f35b6102636004803603602081101561023757600080fd5b81019080803573ffffffffffffffffffffffffffffffffffffffff169060200190929190505050610b34565b6040518080602001828103825283818151815260200191508051906020019080838360005b838110156102a3578082015181840152602081019050610288565b50505050905090810190601f1680156102d05780820380516001836020036101000a031916815260200191505b509250505060405180910390f35b61044e600480360360608110156102f457600080fd5b81019080803573ffffffffffffffffffffffffffffffffffffffff1690602001909291908035906020019064010000000081111561033157600080fd5b82018360208201111561034357600080fd5b8035906020019184600183028401116401000000008311171561036557600080fd5b91908080601f016020809104026020016040519081016040528093929190818152602001838380828437600081840152601f19601f820116905080830192505050505050509192919290803590602001906401000000008111156103c857600080fd5b8201836020820111156103da57600080fd5b803590602001918460018302840111640100000000831117156103fc57600080fd5b91908080601f016020809104026020016040519081016040528093929190818152602001838380828437600081840152601f19601f820116905080830192505050505050509192919290505050610e14565b005b610545600480360360e081101561046657600080fd5b810190808035906020019064010000000081111561048357600080fd5b82018360208201111561049557600080fd5b803590602001918460018302840111640100000000831117156104b757600080fd5b91908080601f016020809104026020016040519081016040528093929190818152602001838380828437600081840152601f19601f820116905080830192505050505050509192919290803590602001909291908035906020019092919080359060200190929190803590602001909291908035906020019092919080359060200190929190505050610f63565b005b61057d6004803603604081101561055d57600080fd5b810190808035906020019092919080359060200190929190505050611146565b6040518082815260200191505060405180910390f35b6105e7600480360360a08110156105a957600080fd5b810190808035906020019092919080359060200190929190803590602001909291908035906020019092919080359060200190929190505050611184565b005b610615600480360360208110156105ff57600080fd5b810190808035906020019092919050505061121c565b6040518082815260200191505060405180910390f35b6106576004803603602081101561064157600080fd5b8101908080359060200190929190505050611239565b6040518082815260200191505060405180910390f35b6107c76004803603606081101561068357600080fd5b81019080803590602001906401000000008111156106a057600080fd5b8201836020820111156106b257600080fd5b803590602001918460018302840111640100000000831117156106d457600080fd5b91908080601f016020809104026020016040519081016040528093929190818152602001838380828437600081840152601f19601f8201169050808301925050505050505091929192908035906020019064010000000081111561073757600080fd5b82018360208201111561074957600080fd5b8035906020019184600183028401116401000000008311171561076b57600080fd5b91908080601f016020809104026020016040519081016040528093929190818152602001838380828437600081840152601f19601f82011690508083019250505050505050919291929080359060200190929190505050611251565b005b6107ff600480360360408110156107df57600080fd5b81019080803590602001909291908035906020019092919050505061136c565b005b61082d6004803603602081101561081757600080fd5b81019080803590602001909291905050506113b8565b604051808060200180602001848152602001838103835286818151815260200191508051906020019080838360005b8381101561087757808201518184015260208101905061085c565b50505050905090810190601f1680156108a45780820380516001836020036101000a031916815260200191505b50838103825285818151815260200191508051906020019080838360005b838110156108dd5780820151818401526020810190506108c2565b50505050905090810190601f16801561090a5780820380516001836020036101000a031916815260200191505b509550505050505060405180910390f35b6109476004803603602081101561093157600080fd5b810190808035906020019092919050505061151f565b604051808215151515815260200191505060405180910390f35b61098d6004803603602081101561097757600080fd5b8101908080359060200190929190505050611550565b604051808215151515815260200191505060405180910390f35b600481815481106109b457fe5b9060005260206000209060050201600091509050806000015490806001018054600181600116156101000203166002900480601f016020809104026020016040519081016040528092919081815260200182805460018160011615610100020316600290048015610a665780601f10610a3b57610100808354040283529160200191610a66565b820191906000526020600020905b815481529060010190602001808311610a4957829003601f168201915b505050505090806002018054600181600116156101000203166002900480601f016020809104026020016040519081016040528092919081815260200182805460018160011615610100020316600290048015610b045780601f10610ad957610100808354040283529160200191610b04565b820191906000526020600020905b815481529060010190602001808311610ae757829003601f168201915b5050505050908060030160009054906101000a900473ffffffffffffffffffffffffffffffffffffffff16905084565b606080600080905060008090505b600480549050811015610c8c5760048181548110610b5c57fe5b906000526020600020906005020160030160009054906101000a900473ffffffffffffffffffffffffffffffffffffffff1673ffffffffffffffffffffffffffffffffffffffff168573ffffffffffffffffffffffffffffffffffffffff161415610c7f5760048181548110610bce57fe5b90600052602060002090600502016001018054600181600116156101000203166002900480601f016020809104026020016040519081016040528092919081815260200182805460018160011615610100020316600290048015610c735780601f10610c4857610100808354040283529160200191610c73565b820191906000526020600020905b815481529060010190602001808311610c5657829003601f168201915b50505050509250600191505b8080600101915050610b42565b50600115158115151415610ca4578192505050610e0f565b600c60000160009054906101000a900473ffffffffffffffffffffffffffffffffffffffff1673ffffffffffffffffffffffffffffffffffffffff168473ffffffffffffffffffffffffffffffffffffffff161415610d3c576040518060400160405280600c81526020017f4d616e756661637475726572000000000000000000000000000000000000000081525092505050610e0f565b600d60000160009054906101000a900473ffffffffffffffffffffffffffffffffffffffff1673ffffffffffffffffffffffffffffffffffffffff168473ffffffffffffffffffffffffffffffffffffffff161415610dd4576040518060400160405280600b81526020017f506861726d61636973743100000000000000000000000000000000000000000081525092505050610e0f565b6040518060400160405280600781526020017f5669657765727300000000000000000000000000000000000000000000000000815250925050505b919050565b610e1c61169c565b82816020018190525081816040018190525083816060019073ffffffffffffffffffffffffffffffffffffffff16908173ffffffffffffffffffffffffffffffffffffffff168152505060015481600001818152505060016000815480929190600101919050555060048190806001815401808255809150509060018203906000526020600020906005020160009091929091909150600082015181600001556020820151816001019080519060200190610ed89291906116e1565b506040820151816002019080519060200190610ef59291906116e1565b5060608201518160030160006101000a81548173ffffffffffffffffffffffffffffffffffffffff021916908373ffffffffffffffffffffffffffffffffffffffff1602179055506080820151816004019080519060200190610f59929190611761565b5050505050505050565b610f6b6117ae565b60038781548110610f7857fe5b90600052602060002090600402016003016002549080600181540180825580915050906001820390600052602060002001600090919290919091505550878160200181905250858160400151600060058110610fd057fe5b602002018181525050848160400151600160058110610feb57fe5b60200201818152505083816040015160026005811061100657fe5b60200201818152505082816040015160036005811061102157fe5b60200201818152505081816040015160046005811061103c57fe5b60200201818152505085600560006005811061105457fe5b016000828254039250508190555084600560016005811061107157fe5b016000828254039250508190555083600560026005811061108e57fe5b01600082825403925050819055508260056003600581106110ab57fe5b01600082825403925050819055508160056004600581106110c857fe5b0160008282540392505081905550600254816000018181525050600260008154809291906001019190505550600a6000908060018154018082558091505090600182039060005260206000209060209182820401919006909192909190916101000a81548160ff021916908315150217905550505050505050505050565b60006004838154811061115557fe5b9060005260206000209060050201600401828154811061117157fe5b9060005260206000200154905092915050565b84600560006005811061119357fe5b01600082825401925050819055508360056001600581106111b057fe5b01600082825401925050819055508260056002600581106111cd57fe5b01600082825401925050819055508160056003600581106111ea57fe5b016000828254019250508190555080600560046005811061120757fe5b01600082825401925050819055505050505050565b6000806005836005811061122c57fe5b0154905080915050919050565b6005816005811061124657fe5b016000915090505481565b6112596117d5565b83816000018190525082816020018190525060005481604001818152505060008081548092919060010191905055506003819080600181540180825580915050906001820390600052602060002090600402016000909192909190915060008201518160000190805190602001906112d29291906116e1565b5060208201518160010190805190602001906112ef9291906116e1565b50604082015181600201556060820151816003019080519060200190611316929190611761565b505050506004828154811061132757fe5b90600052602060002090600502016004018160400151908060018154018082558091505090600182039060005260206000200160009091929091909150555050505050565b6004828154811061137957fe5b90600052602060002090600502016004018190806001815401808255809150509060018203906000526020600020016000909192909190915055505050565b600381815481106113c557fe5b9060005260206000209060040201600091509050806000018054600181600116156101000203166002900480601f0160208091040260200160405190810160405280929190818152602001828054600181600116156101000203166002900480156114715780601f1061144657610100808354040283529160200191611471565b820191906000526020600020905b81548152906001019060200180831161145457829003601f168201915b505050505090806001018054600181600116156101000203166002900480601f01602080910402602001604051908101604052809291908181526020018280546001816001161561010002031660029004801561150f5780601f106114e45761010080835404028352916020019161150f565b820191906000526020600020905b8154815290600101906020018083116114f257829003601f168201915b5050505050908060020154905083565b600a818154811061152c57fe5b9060005260206000209060209182820401919006915054906101000a900460ff1681565b6000600d60000160009054906101000a900473ffffffffffffffffffffffffffffffffffffffff1673ffffffffffffffffffffffffffffffffffffffff163373ffffffffffffffffffffffffffffffffffffffff1614611618576040517f08c379a00000000000000000000000000000000000000000000000000000000081526004018080602001828103825260168152602001807f596f7520617265206e6f7420617574686f72697365640000000000000000000081525060200191505060405180910390fd5b60011515600a838154811061162957fe5b90600052602060002090602091828204019190069054906101000a900460ff161515141561165a5760009050611697565b6001600a838154811061166957fe5b90600052602060002090602091828204019190066101000a81548160ff021916908315150217905550600190505b919050565b6040518060a00160405280600081526020016060815260200160608152602001600073ffffffffffffffffffffffffffffffffffffffff168152602001606081525090565b828054600181600116156101000203166002900490600052602060002090601f016020900481019282601f1061172257805160ff1916838001178555611750565b82800160010185558215611750579182015b8281111561174f578251825591602001919060010190611734565b5b50905061175d91906117fd565b5090565b82805482825590600052602060002090810192821561179d579160200282015b8281111561179c578251825591602001919060010190611781565b5b5090506117aa91906117fd565b5090565b604051806060016040528060008152602001606081526020016117cf611822565b81525090565b6040518060800160405280606081526020016060815260200160008152602001606081525090565b61181f91905b8082111561181b576000816000905550600101611803565b5090565b90565b6040518060a0016040528060059060208202803883398082019150509050509056fea265627a7a72315820f4ba77aa6c1af5b6d50c2e73515910e449e2caadaf7aaf74c2a0a61b7d086dee64736f6c63430005100032",
  "source": "//solium-disable linebreak-style\npragma solidity >=0.5.0;\ncontract dcare{\n    struct Doctor {\n        uint id;\n        string username;\n        string password;\n        address add;\n        uint[] allocatePatients;\n    }\n    struct Prescription {\n        uint id;\n        string message;\n        uint[5] medicine;\n    }\n    struct Patient {\n        string username;\n        string password;\n        uint id;\n        uint[] prescriptionIds;\n    }\n    struct Pharmacist {\n        address add;\n        }\n    struct Manufacturer {\n        address add;\n    }\n\n    uint idGlobalPatient = 0;\n    uint idGlobalDoctor = 0;\n    uint idGlobalPrescription = 0;\n    Patient[] public registeredPatients;\n    Doctor[] public registeredDoctors;\n    uint[5] public Medicine;\n    bool[] public isDelivered;\n    Prescription[] allPrescriptions;\n    Manufacturer Manufacturer1;\n    Pharmacist Pharmacist1;\n\n    function registerPatient (string memory uname,string memory psd, uint idd) public\n    {\n        Patient memory p;\n        p.username = uname;\n        p.password = psd;\n        p.id = idGlobalPatient;\n        idGlobalPatient++;\n        registeredPatients.push(p);\n        registeredDoctors[idd].allocatePatients.push(p.id);\n\n    }\n\n    function registerDoctor (address add, string memory uname, string memory psd ) public\n    {\n        Doctor memory d;\n        d.username = uname;\n        d.password = psd;\n        d.add = add;\n        d.id = idGlobalDoctor;\n        idGlobalDoctor++;\n        registeredDoctors.push(d);\n\n    }\n\n    constructor () public {\n        registerDoctor(0x2EE4BEf611eeDFe1822169Bdcb18247CC27BbbcE,\"DrRM\",\"Mishra\");\n        registerDoctor(0xc10FDEA8aEA67Fee221FE47b4f0A1703cbB5D491,\"DrMK\",\"Kumawat\");\n        Manufacturer1.add = 0x443D7a509A5859BE26fD5E2e60feC30d7E6f3AdF;\n        Pharmacist1.add = 0x22f5B24222210B8ef09c21E563EA861253211979;\n        registerPatient(\"Rishabh\",\"Mishra\",0);\n        registerPatient(\"Manish\",\"Kumawat\",0);\n    }\n    function referPatient (uint idd, uint idp) public\n    {\n        registeredDoctors[idd].allocatePatients.push(idp);\n    }\n    function check(uint idd,uint i) public view returns(uint) {\n        return registeredDoctors[idd].allocatePatients[i];\n    }\n    function updateMedicine(uint a,uint b,uint c,uint d,uint e) public {\n        Medicine[0] += a;\n        Medicine[1] += b;\n        Medicine[2] += c;\n        Medicine[3] += d;\n        Medicine[4] += e;\n    }\n\n    function generatePrescription(string memory m,uint idp,uint a,uint b,uint c,uint d,uint e) public {\n        Prescription memory p;\n        registeredPatients[idp].prescriptionIds.push(idGlobalPrescription);\n        p.message = m;\n        p.medicine[0] = a;\n        p.medicine[1] = b;\n        p.medicine[2] = c;\n        p.medicine[3] = d;\n        p.medicine[4] = e;\n        Medicine[0] -= a;\n        Medicine[1] -= b;\n        Medicine[2] -= c;\n        Medicine[3] -= d;\n        Medicine[4] -= e;\n        p.id = idGlobalPrescription;\n        idGlobalPrescription++;\n        isDelivered.push(false);\n    }\n\n    function provideMedicine(uint idpres) public returns(bool)\n    {\n        require(msg.sender==Pharmacist1.add,\"You are not authorised\");\n        if(isDelivered[idpres]==true)\n        {\n            return false;\n        }\n        else\n        {\n            isDelivered[idpres] = true;\n            return true;\n        }\n    }\n\n    function getMedicine(uint i) public view returns(uint)\n    {\n        uint medval = Medicine[i];\n        return medval;\n    }\n    function checkUser (address user) public view returns(string memory)\n    {\n        string memory res;\n        bool flag = false;\n        for(uint i = 0;i < registeredDoctors.length; i++)\n        {  \n            if(user==registeredDoctors[i].add)\n            {res = registeredDoctors[i].username;flag = true;}\n        }\n        if(flag == true)\n        {return res;}\n        else if(user == Manufacturer1.add)\n        {return \"Manufacturer\";}\n        else if(user == Pharmacist1.add)\n        {return \"Pharmacist1\";}\n        else\n        {return \"Viewers\";}\n    }\n\n}",
  "sourcePath": "/home/manish/Desktop/hospital/dcare/contracts/dcare.sol",
  "compiler": {
    "name": "solc",
    "version": "0.5.16+commit.9c3226ce.Emscripten.clang"
  },
  "schemaVersion": "3.0.23",
  "updatedAt": "2020-03-13T17:30:24.972Z",
  "networkType": "ethereum",
  "devdoc": {
    "methods": {}
  },
  "userdoc": {
    "methods": {}
  }
}